:020000040800F2
:1000000000000120351C0008791A00087B1A00083E
:100010007D1A00087F1A0008811A000800000000FD
:10002000000000000000000000000000831A00082B
:10003000851A000800000000871A0008891A0008C5
:100040007D1C00087D1C00087D1C00087D1C00082C
:100050007D1C00087D1C00087D1C00087D1C00081C
:100060007D1C00087D1C00087D1C00087D1C00080C
:100070007D1C00087D1C0008911A0008A11A0008C8
:100080007D1C00087D1C00087D1C00087D1C0008EC
:100090007D1C00087D1C00087D1C00087D1C0008DC
:1000A0007D1C00087D1C00087D1C00087D1C0008CC
:1000B0007D1C00087D1C00087D1C00087D1C0008BC
:1000C0007D1C00087D1C00087D1C00087D1C0008AC
:1000D0007D1C0008B11A00087D1C00087D1C00086A
:1000E0007D1C00087D1C00087D1C00087D1C00088C
:1000F0007D1C00087D1C00087D1C00087D1C00087C
:100100007D1C00087D1C00087D1C00087D1C00086B
:100110007D1C00087D1C00087D1C00087D1C00085B
:100120007D1C00087D1C00087D1C00087D1C00084B
:1001300000000000000000000000000000000000BF
:1001400000000000000000000000000000000000AF
:10015000000000000000000000000000000000009F
:10016000000000000000000000000000000000008F
:10017000000000000000000000000000000000007F
:10018000000000000000000000000000000000006F
:10019000000000000000000000000000000000005F
:1001A000000000000000000000000000000000004F
:1001B000000000000000000000000000000000003F
:1001C000000000000000000000000000000000002F
:1001D000000000000000000000000000000000001F
:0401E0005FF8E0F1F3
:1001E40010B5054C237833B9044B13B10448AFF36D
:1001F40000800123237010BD3C0400200000000097
:100204004C1E000808B5034B1BB103490348AFF368
:10021400008008BD00000000400400204C1E0008BF
:1002240010B504460E4B18784FF47A73B3FBF0F311
:100234000C4A1068B0FBF3F000F094F868B90F2C86
:1002440001D901200AE0002221464FF0FF3000F0DE
:1002540043F8054B1C60002000E0012010BD00BFE6
:1002640000000020080000200400002008B5074A10
:10027400136843F010031360032000F01BF80F20F1
:10028400FFF7CEFF01F0D4FB002008BD00200240A0
:10029400034A1168034B1B780B441360704700BF7B
:1002A4005804002000000020014B1868704700BF6C
:1002B40058040020074AD36823F4E0631B041B0C92
:1002C400000200F4E060034343F0BF6343F40033EF
:1002D400D360704700ED00E000B5194BDB68C3F351
:1002E4000223C3F1070CBCF1040F28BF4FF0040C28
:1002F40003F1040EBEF1060F18D9033B4FF0FF3E85
:100304000EFA0CFC21EA0C0199400EFA03F322EADE
:100314000303194300280BDB0901C9B200F1604053
:1003240000F5614080F800135DF804FB0023E5E765
:1003340000F00F000901C9B2024B1954F4E700BFE1
:1003440000ED00E014ED00E0002807DB00F01F02E0
:10035400400901239340024A42F82030704700BF0D
:1003640000E100E00138B0F1807F0BD24FF0E023D0
:100374005861054AF02182F8231000209861072271
:100384001A6170470120704700ED00E030B4012489
:10039400056CAC40C56B6C60046863604368102BEB
:1003A40005D0036899600368DA6030BC704703685D
:1003B4009A600368D960F8E700283AD010B402467E
:1003C40000681D4B984229D81C4B03441C49A1FBCF
:1003D40003131B099B0013641A4BD363022382F893
:1003E4002130016821F47F5121F030015368946871
:1003F4002343D468234314692343546923439469EE
:100404002343D46923430B430360002090630123F7
:1004140082F8213082F8200010BC70470A4B034454
:100424000749A1FB03131B099B001364074BD36308
:10043400D4E70120704700BF07040240F8FFFDBF66
:10044400CDCCCCCC00000240F8FBFDBF0004024040
:1004540038B5044690F82000012831D0012084F8F2
:10046400200094F82100012804D0002384F82030CF
:10047400022038BD022084F821000020A0632568F2
:10048400286820F0010028602046FFF77FFFE36A18
:100494005BB12268136843F00E031360226813688B
:1004A40043F0010313600020E3E72268136823F09C
:1004B400040313602268136843F00A031360EDE732
:1004C4000220D6E790F82130022B06D00423836360
:1004D400002380F82030012070470268136823F05D
:1004E4000E0313600268136823F001031360036CA6
:1004F400C16B012202FA03F34B6080F82120002330
:1005040080F820301846704708B590F82130022B47
:1005140003D004238363012008BD0268136823F019
:100524000E0313600268136823F001031360036869
:100534004B4A93424ED9783A934224D01432934290
:1005440030D0143293422FD0143293422FD014322D
:1005540093422FD0143293422FD0143293422FD08F
:1005640002F5627293422ED0143293422DD014328B
:1005740093422CD01432934202D04FF4803203E0E1
:100584004FF4805200E00122364B5A60012380F878
:100594002130002380F82030436B002B5ED0984735
:1005A4000020B9E71022EFE74FF48072ECE74FF434
:1005B4008052E9E74FF48032E6E74FF48012E3E734
:1005C4004FF08072E0E70122DEE71022DCE74FF40F
:1005D4008072D9E7244A934224D01432934225D01E
:1005E4001432934224D01432934224D014329342CE
:1005F40024D01432934224D01432934224D002F5EE
:100604006272934223D01432934222D01432934222
:1006140021D01432934202D04FF4803203E04FF4DD
:10062400805200E00122114B5A60AFE71022FAE732
:100634004FF48072F7E74FF48052F4E74FF48032BE
:10064400F1E74FF48012EEE74FF08072EBE70122FE
:10065400E9E71022E7E74FF48072E4E700205BE764
:1006640080000240000402400800024000000240F2
:1006740038B5C36B1A6804682568016C04238B4081
:10068400134200F09B8015F0040F00F0978023685C
:1006940013F0200F03D1236823F0040323600368BD
:1006A4009A4A934246D9783A934224D014329342D8
:1006B40028D01432934227D01432934227D01432D4
:1006C400934227D01432934227D01432934227D036
:1006D40002F56272934226D01432934225D014322A
:1006E400934224D01432934202D04FF4802203E088
:1006F4004FF4804200E00422854B5A60C36A03B180
:10070400984738BD4022F7E74FF48062F4E74FF48E
:100714008042F1E74FF48022EEE74FF48002EBE7EA
:100724004FF08062E8E70422E6E74022E4E74FF472
:100734008062E1E7774A934224D01432934225D071
:100744001432934224D01432934224D0143293426C
:1007540024D01432934224D01432934224D002F58C
:100764006272934223D01432934222D014329342C1
:1007740021D01432934202D04FF4802203E04FF48C
:10078400804200E00422644B5A60B7E74022FAE753
:100794004FF48062F7E74FF48042F4E74FF480228D
:1007A400F1E74FF48002EEE74FF08062EBE70422BA
:1007B400E9E74022E7E74FF48062E4E702238B4055
:1007C400134200F0AB8015F0020F00F0A7802368FD
:1007D40013F0200F06D1236823F00A0323600123BA
:1007E40080F821300368494A93424BD9783A9342BE
:1007F40024D0143293422DD0143293422CD014328C
:1008040093422CD0143293422CD0143293422CD0E5
:10081400143293422CD002F5627293422BD01432DC
:1008240093422AD01432934229D01432934202D0F4
:100834004FF4003203E04FF4005200E00222344B44
:100844005A60002380F82030836A002B3FF459AFAC
:10085400984756E72022F2E74FF40072EFE74FF48F
:100864000052ECE74FF40032E9E74FF40012E6E7F8
:100874004FF00072E3E70222E1E72022DFE74FF4C2
:100884000072DCE7234A934224D01432934225D0E9
:100894001432934224D01432934224D0143293421B
:1008A40024D01432934224D01432934224D002F53B
:1008B4006272934223D01432934222D01432934270
:1008C40021D01432934202D04FF4003203E04FF4AB
:1008D400005200E00222104B5A60B2E72022FAE7ED
:1008E4004FF40072F7E74FF40052F4E74FF400328C
:1008F400F1E74FF40012EEE74FF00072EBE702224B
:10090400E9E72022E7E74FF40072E4E780000240C1
:10091400000402400800024000000240082303FAD9
:1009240001F111423FF4EDAE15F0080F3FF4E9AECA
:10093400236823F00E032360026CC16B012303FAC6
:1009440002F24A60836380F82130002380F820306B
:10095400036B002B3FF4D5AE9847D2E670B582B056
:100964000024A446B0E0874DAA4210D007D9864D92
:10097400AA420CD005F58035AA4208D013E0A5F5AB
:100984008015AA4203D005F57025AA4207D18A68CA
:10099400002A62D0012A5BD04361082403E0A5F554
:1009A4008015AA42F3D0BEF1FF0F58D80646BEF117
:1009B400FF0F56D84FEA8C0233680F25954023EA7F
:1009C400050304FA02F2134333604B6813F0805FAB
:1009D40078D06E4B9A6942F001029A619B6903F0E8
:1009E40001030193019B4FEA9C02951C684B53F849
:1009F40025600CF003039D000F23AB4026EA030699
:100A0400644B984233D003F58063984200F0988099
:100A140003F58063984200F0958003F58063984263
:100A240000F0928003F58063984200F08F8003F514
:100A34008063984219D006231AE0CC68B3E7CC68E7
:100A44000434B0E7CC680834ADE7CC680C34AAE7CA
:100A540003610824A7E70024A5E70424A3E7061DEF
:100A6400A5E7ACF108029200A6E7052300E0002305
:100A7400AB4033430232464D45F822304B6813F401
:100A8400803F65D0444A136843EA0E0313604B6801
:100A940013F4003F62D0404A536843EA0E035360A4
:100AA4004B6813F4801F5FD03B4A936843EA0E03FC
:100AB40093604B6813F4001F5CD0374AD36843EA51
:100AC4000E03D3600CF1010C0A6832FA0CF357D010
:100AD400012303FA0CF302EA030E33EA0202F1D112
:100AE4004A68122A3FF63FAF122A3FF65CAF01A5CF
:100AF40055F822F0930900083F0A0008490A000843
:100B04005B0A0008AB090008AB090008AB09000840
:100B1400AB090008AB090008AB090008AB090008E1
:100B2400AB090008AB090008AB090008AB090008D1
:100B3400AB090008AB090008430A00084F0A000883
:100B4400012395E7022393E7032391E704238FE727
:100B5400114A136823EA0E03136098E70E4A536898
:100B640023EA0E0353609BE70B4A936823EA0E03C0
:100B740093609EE7084AD36823EA0E03D360A1E793
:100B840002B070BD000022100000311000100240BD
:100B940000000140000801400004014082B0084BFD
:100BA4001B68084AA2FB03235B0A00FB03F30193BF
:100BB40000BF019B5A1E0192002BF9D102B070476D
:100BC40008000020D34D6210002800F0F18170B5B8
:100BD40082B00446036813F0010F2CD0994B5B6874
:100BE40003F00C03042B1DD0964B5B6803F00C033D
:100BF400082B12D06368B3F5803F41D0002B55D148
:100C040003F1804303F504331A6822F480321A6036
:100C14001A6822F480221A6037E08A4B5B6813F466
:100C2400803FE7D0874B1B6813F4003F03D0636811
:100C3400002B00F0BF81236813F0020F75D0814BA5
:100C44005B6813F00C0F5FD07E4B5B6803F00C0302
:100C5400082B54D02369002B00F08A807A4B0122A0
:100C64001A60FFF721FB0546764B1B6813F0020F51
:100C740075D1FFF719FB401B0228F5D903209EE12B
:100C8400704A136843F480331360636843B3FFF717
:100C94000BFB05466B4B1B6813F4003FCBD1FFF7EE
:100CA40003FB401B6428F5D9032088E1B3F5A02F8A
:100CB40009D0644B1A6822F480321A601A6822F44C
:100CC40080221A60E1E703F18043A3F53C331A68FC
:100CD40042F480221A601A6842F480321A60D4E71F
:100CE400FFF7E2FA0546574B1B6813F4003FA2D006
:100CF400FFF7DAFA401B6428F5D903205FE1514B72
:100D04005B6813F4803FA5D14E4B1B6813F0020FB0
:100D140003D02369012B40F04F814A4A136823F022
:100D2400F803616943EAC1031360236813F0080FF1
:100D340033D0A369002B5CD0434B0122C3F8802439
:100D4400FFF7B2FA05463F4B5B6A13F0020F21D15D
:100D5400FFF7AAFA401B0228F5D903202FE1394AEC
:100D6400136823F0F803616943EAC1031360DCE705
:100D7400354B00221A60FFF797FA0546314B1B6882
:100D840013F0020FD1D0FFF78FFA401B0228F5D9D8
:100D9400032014E10120FFF701FF236813F0040F7F
:100DA40000F09680274BDB6913F0805F34D1254B2C
:100DB400DA6942F08052DA61DB6903F0805301930F
:100DC400019B0125214B1B6813F4807F26D0E36827
:100DD400012B3DD0002B53D103F1804303F50433A1
:100DE4001A6A22F001021A621A6A22F004021A62D2
:100DF40033E0154B0022C3F88024FFF755FA05466B
:100E0400104B5B6A13F0020FC7D0FFF74DFA401B7B
:100E14000228F5D90320D2E00025D3E70B4A136852
:100E240043F480731360FFF73FFA0646074B1B68D1
:100E340013F4807FCBD1FFF737FA801B6428F5D9F0
:100E44000320BCE000100240000042420070004059
:100E54005F4A136A43F001031362E36833B3FFF795
:100E640023FA06465A4B1B6A13F0020F2FD1FFF7E1
:100E74001BFA801B41F288339842F3D903209EE089
:100E8400052B09D0524B1A6A22F001021A621A6A1F
:100E940022F004021A62E0E74D4B1A6A42F004029F
:100EA4001A621A6A42F001021A62D6E7FFF7FCF9E5
:100EB4000646474B1B6A13F0020F08D0FFF7F4F9FC
:100EC400801B41F288339842F3D9032077E0E5B9D7
:100ED400E369002B72D03E4A526802F00C02082AE1
:100EE40056D0022B17D03B4B00221A66FFF7DCF9D1
:100EF4000446374B1B6813F0007F47D0FFF7D4F943
:100F0400001B0228F5D9032059E0314AD36923F0A4
:100F14008053D361DCE72F4B00221A66FFF7C4F934
:100F240005462B4B1B6813F0007F06D0FFF7BCF976
:100F3400401B0228F5D9032041E0236AB3F5803F22
:100F44001AD023494B6823F47413226A606A02435B
:100F540013434B601F4B01221A66FFF7A5F90446A1
:100F64001B4B1B6813F0007F0ED1FFF79DF9001B8C
:100F74000228F5D9032022E0154A536823F40033EC
:100F8400A1680B435360DCE7002018E0002016E062
:100F9400012B16D00E4B5B6803F48031226A914218
:100FA40011D103F47013626A93420ED1002006E05B
:100FB40001207047012002E0012000E0002002B07F
:100FC40070BD0120FBE70120F9E70120F7E700BF2E
:100FD400001002400000424286B0174B0FCB0DF1C7
:100FE400180C0CE90F0040F20123ADF80430134B48
:100FF4005B6803F00C02082A02D0114806B070475F
:10100400C3F3834218326A4412F8100C13F4803F7D
:101014000DD00A4B5B68C3F3404318336B4413F899
:10102400143C074A02FB00F0B0FBF3F0E6E7054B83
:1010340003FB00F0E2E700BF641E0008001002405A
:1010440000127A0000093D00002800F0A08070B56D
:101054000D460446524B1B6803F007038B420BD228
:101064004F4A136823F007030B431360136803F01C
:1010740007038B4240F08D80236813F0020F17D0D2
:1010840013F0040F04D0474A536843F4E0635360F9
:10109400236813F0080F04D0424A536843F46053A2
:1010A4005360404A536823F0F003A1680B43536034
:1010B400236813F0010F31D06368012B20D0022B79
:1010C40025D0384A126812F0020F64D035494A68B4
:1010D40022F0030213434B60FFF7E6F80646314B58
:1010E4005B6803F00C036268B3EB820F16D0FFF762
:1010F400DBF8801B41F288339842F0D9032045E0A5
:10110400284A126812F4003FE0D101203EE0254A4B
:10111400126812F0007FD9D1012037E0204B1B6800
:1011240003F00703AB420AD91D4A136823F00703EF
:101134002B431360136803F00703AB422DD12368DC
:1011440013F0040F06D0174A536823F4E063E168F0
:101154000B435360236813F0080F07D0114A5368F8
:1011640023F46053216943EAC1035360FFF734FF5A
:101174000C4B5B68C3F303130B4AD35CD8400B4B93
:1011840018600B4B1868FFF74BF8002070BD012066
:1011940070470120FAE70120F8E70120F6E700BFD5
:1011A4000020024000100240781E000808000020C1
:1011B40004000020014B1868704700BF080000209D
:1011C40008B5FFF7F7FF044B5B68C3F30223034A38
:1011D400D35CD84008BD00BF00100240881E000840
:1011E40008B5FFF7E7FF044B5B68C3F3C223034A68
:1011F400D35CD84008BD00BF00100240881E000820
:101204000268D36823F0C003D360202380F83D3004
:1012140070470268D36823F49073D36002685369FB
:1012240023F001035361036B012B05D0202380F8C5
:101234003E300023036370470268D36823F0100331
:10124400D360F3E790F83D30DBB2212B01D00220CC
:1012540070478368B3F5805F17D0036A5A1C026233
:101264001A7803685A60C38C9BB2013B9BB2C38457
:101274004BB90268D36823F08003D3600268D36853
:1012840043F04003D360002070470369002BE4D18E
:10129400036A1B880268C3F308035360036A0233BA
:1012A4000362E0E710B504460268136923F440536F
:1012B400C1680B43136183680269134342691A438B
:1012C4000168CB6823F4B05323F00C031343CB60C1
:1012D4000268536923F4407381690B4353610268C4
:1012E400134B9A4220D0FFF76BFF024602EB8202B7
:1012F40002EB820263689B00B2FBF3F20D48A0FB91
:1013040002314909642303FB11231B013233A0FB7F
:1013140003235B0903F0F00202EB011203F00F0355
:10132400216813448B6010BDFFF75AFF0246DDE7C6
:10133400003801401F85EB5158B310B5044690F8AE
:101344003D300BB3242384F83D302268D36823F462
:101354000053D3602046FFF7A5FF2268136923F4E6
:10136400904313612268536923F02A03536122686E
:10137400D36843F40053D36000202064202384F80E
:101384003D3084F83E3010BD80F83C3000F0D8FB8E
:10139400D8E701207047000038B590F83D30DBB243
:1013A400202B31D10446002930D0002A30D090F8C7
:1013B4003C30012B2ED0012380F83C300162828422
:1013C400C28400250564212380F83D30436B124814
:1013D4009862636B1148D862636B11481863636B3E
:1013E4005D6320681346021D606BFFF731F82368C4
:1013F4006FF040021A6084F83C502268536943F04D
:1014040080035361284600E0022038BD0120FCE738
:101414000120FAE70220F8E78F140008DB14000823
:10142400EB14000810B5044601684A6990F83D3091
:10143400DBB2212B0AD021684A6902F0400294F8F9
:101444003E30DBB2222B11D0002010BD02F080020E
:10145400002AF0D04B6923F080034B61406B08B144
:10146400FFF730F82046FFF7CBFEE4E7002AEBD085
:101474004B6923F040034B61A06B08B1FFF722F8DE
:101484002046FFF7C6FEDFE7704708B50346406A0B
:101494001B681B6813F0200F0CD10023C38402685F
:1014A400536923F0800353610268D36843F0400317
:1014B400D36008BDFFF7E8FFFBE708B50168CA6819
:1014C40022F04002CA60202280F83D20FFF7DCFFB2
:1014D400002008BD704708B5406AFFF7FBFF08BD50
:1014E40070477047704710B5446A23685A6994F886
:1014F4003D30DBB2212B10D023685A6902F0400240
:1015040094F83E30DBB2222B11D0236C43F010034D
:1015140023642046FFF7E6FF10BD02F08002002A94
:10152400EAD00023E3842046FFF76AFEE4E7002ABA
:10153400EBD00023E3852046FFF76BFEE5E708B513
:10154400406A0023C385C384FFF7CCFF08BD7047FE
:1015540090F83E30DBB2222B60D18368B3F5805F14
:1015640046D0826AB3F5805F04D0002B4DD1036965
:10157400002B4AD103685B681370836A013383626A
:10158400C38D9BB2013B9BB2C385002B48D100B5F0
:1015940083B00268D36823F02003D3600268D36861
:1015A40023F48073D3600268536923F00103536109
:1015B400202380F83E30036B012B2CD100230363DE
:1015C4000268D36823F01003D36003681A6812F02A
:1015D400100F06D0002201921A6801925B680193F1
:1015E400019B818DFFF7B3FF002003B05DF804FB7E
:1015F4000269002AB5D1826A03685B68C3F30803F1
:101604001380836A02338362BAE703685B6803F07A
:101614007F031370B1E7FFF763FFE5E7022070472C
:101624000020704730B583B0044602681368D06860
:10163400516913F00F0505D113F0200F02D010F0FB
:10164400200F19D12DB111F0010119D110F4907F9F
:1016540016D1216B012975D013F0800F03D010F03F
:10166400800F40F0D78013F0400F03D010F0400FEC
:1016740040F0D48003B030BD2046FFF769FFF9E79E
:1016840013F0010F06D010F4807F03D0226C42F0D7
:101694000102226413F0040F04D019B1226C42F049
:1016A4000202226413F0020F04D019B1226C42F03A
:1016B4000402226413F0080F07D010F0200F00D1A9
:1016C40019B1226C42F008022264226C002AD1D0A3
:1016D40013F0200F02D010F0200F21D123685B6992
:1016E40003F04003226C12F0080F00D123B320460C
:1016F400FFF78FFD23685A6912F0400F18D05A691A
:1017040022F040025A61A36B73B1464A5A63A06B3C
:10171400FEF7FAFE0028ADD0A06B436B9847A9E70B
:101724002046FFF715FFD9E72046FFF7DBFEA1E7C8
:101734002046FFF7D7FE9DE72046FFF7D3FE0023A0
:10174400236497E713F0100F86D010F0100F83D0A6
:10175400002301931368019353680193019B536918
:1017640013F0400F32D0A16B0B685B689BB2002B67
:1017740080D0A08D98427FF67DAFE3858B69202BC6
:1017840008D1A18DE38D9BB2C91A89B22046FFF717
:10179400DEFE6FE7D36823F48073D3602268536955
:1017A40023F0010353612268536923F0400353611A
:1017B400202384F83E30002323632268D36823F077
:1017C4001003D360A06BFEF77DFEDAE7A18DE38DF5
:1017D4009BB2C91A89B2E38D9BB2002B3FF44AAF86
:1017E40000293FF447AFD36823F49073D360226891
:1017F400536923F001035361202384F83E3000230E
:1018040023632268D36823F01003D3602046FFF7D4
:101814009EFE2FE72046FFF715FD2BE72046FFF736
:101824004CFE27E74315000808B5406A036B012BFB
:1018340002D0FFF756FE08BD818D4908FFF787FEE9
:10184400F9E708B50346406A1B681B6813F0200FCC
:1018540016D10023C3850268D36823F48073D36050
:101864000268536923F0010353610268536923F04A
:1018740040035361202380F83E30036B012B05D0D5
:10188400036B012B08D0FFF72BFE08BD0268D36859
:1018940023F01003D360F3E7818DFFF758FEF4E7DC
:1018A40030B583B004461346816282850025056401
:1018B400222280F83E20826B14489062A26B144866
:1018C400D062A26B13481063A26B556320680A466A
:1018D400011DA06BFEF7BCFD019523681A680192F7
:1018E4005A680192019A84F83C50DA6842F4807292
:1018F400DA602268536943F0010353612268536933
:1019040043F040035361284603B030BD4718000834
:101914002D180008EB14000808B590F83E30DBB22F
:10192400202B0DD171B17AB190F83C30012B0DD040
:10193400012380F83C3000230363FFF7B1FF00E08C
:10194400022008BD0120FCE70120FAE70220F8E7A5
:1019540000B583B00E4B5A6942F001025A615B69CB
:1019640003F001030193019B002211460E20FEF7B0
:10197400B3FC0E20FEF7E8FC002211460F20FEF710
:10198400ABFC0F20FEF7E0FC03B05DF804FB00BFE6
:101994000010024072B6FEE700B591B02822002183
:1019A40006A800F08FF90023019302930393049394
:1019B4000593012206924FF4803307930A92022280
:1019C4000D920E934FF4E0130F9306A8FFF7FCF863
:1019D40080B90F23019302210291002303934FF452
:1019E40080620492059301A8FFF72EFB20B911B081
:1019F4005DF804FBFFF7CEFFFFF7CCFF08B5FEF759
:101A040035FCFFF7C9FFFFF7A3FF00F07FF8064C92
:101A1400032206492046FFF77FFF2268D36843F07C
:101A24001003D360FEE700BFEC0400205C04002038
:101A340082B00E4B9A6942F001029A619A6902F0EF
:101A440001020092009ADA6942F08052DA61DB699D
:101A540003F080530193019B054A536823F0E0632C
:101A640043F00073536002B0704700BF001002409F
:101A740000000140FEE7FEE7FEE7FEE7FEE77047F1
:101A84007047704708B5FEF703FC08BD08B5024867
:101A9400FEF7EEFD08BD00BFA804002008B502480B
:101AA400FEF7E6FD08BD00BF6404002030B583B036
:101AB400134B1B681A6812F0100F04D11048FFF77B
:101AC400B1FD03B030BD002201921A6801925B6837
:101AD4000193019B0A4C2046FFF7A4FCA36B1B68EF
:101AE4005A68D2B2C2F10302064DD2B22946204648
:101AF400FFF752FC032229462046FFF70DFFDDE7DE
:101B0400EC0400205C0400207047000008B50A487B
:101B14000A4B03604FF4E133436000238360C360E6
:101B240003610C2242618361C361FFF705FC00B9C4
:101B340008BDFFF72FFFFBE7EC040020003801404D
:101B440070B586B00023029303930493059302684F
:101B5400314B9A4201D006B070BD044603F5584398
:101B64009A6942F480429A619A6902F4804200922E
:101B7400009A9A6942F004029A619B6903F0040393
:101B84000193019B4FF400730293022303930323F5
:101B94000593224E02A93046FEF7E0FE4FF480631F
:101BA4000293002503950123049302A93046FEF70E
:101BB400D5FE1B481B4B0360456085608023C360D2
:101BC400056145618561C561FEF7F6FBF0B9144B0B
:101BD400A3635C621448154B036010234360002325
:101BE40083608022C260036143618361C361FEF745
:101BF400E3FB70B90C4B63635C6200220121252076
:101C0400FEF76AFB2520FEF79FFBA4E7FFF7C2FE61
:101C1400DDE7FFF7BFFEEDE70038014000080140B3
:101C24006404002058000240A8040020440002403C
:101C34000C480D490D4A002302E0D458C450043323
:101C4400C4188C42F9D30A4A0A4C002301E01360F9
:101C54000432A242FBD3FFF757FF00F00FF8FFF75F
:101C6400CDFE7047000000203C040020A01E0008A8
:101C74003C04002034050020FEE7000070B50D4E42
:101C84000D4D761BB61006D0002455F8043B0134E4
:101C94009847A642F9D1094E094D00F0D5F8761BB4
:101CA400B61006D0002455F8043B01349847A642E8
:101CB400F9D170BD941E0008941E00089C1E0008F3
:101CC400941E0008830730B548D0541E002A3FD024
:101CD4000346CAB201E0013C3AD303F8012B9D0745
:101CE400F9D1032C2DD9CDB245EA05250F2C45EAAF
:101CF400054536D9A4F1100222F00F0C03F1200E91
:101D0400E6444FEA121C03F1100242E9045542E989
:101D1400025510327245F8D10CF1010214F00C0F87
:101D240003EB021204F00F0C13D0ACF1040323F004
:101D340003030433134442F8045B9342FBD10CF0D5
:101D440003042CB1CAB21C4403F8012B9C42FBD1FE
:101D540030BD64461346002CF4D1F9E7034614461B
:101D6400BFE71A46A446E0E7024B13B1024800F06D
:101D740005B87047000000008D1D000800230146CF
:101D84001A46184600F01AB838B5084B084D5B1BC4
:101D94009C1007D0043B1D44013C55F80439984776
:101DA400002CF9D1BDE8384000F054B8A01E00085A
:101DB4009C1E0008704700BF704700BF2DE9F04724
:101DC400DFF87CA00646DAF8000098460F469146F4
:101DD400FFF7F0FF1B4B1B68D3F8484124B3656839
:101DE4001F2D26DC5EB96B1C0235DAF80000636037
:101DF40044F82570FFF7E0FF0020BDE8F0870123D9
:101E040004EB8501C1F88890D4F88821AB401A43CB
:101E1400022EC4F88821C1F80881E4D1D4F88C21B9
:101E24001343C4F88C31DEE703F5A674C3F84841C4
:101E3400D5E7DAF80000FFF7BFFF4FF0FF30DCE72B
:101E440038040020901E0008F8B500BFF8BC08BC98
:101E54009E467047F8B500BFF8BC08BC9E46704764
:101E640002030405060708090A0B0C0D0E0F1010D7
:101E74000000000000000000000000000102030454
:101E840006070809000000000102030410000020F6
:081E94006D1D000809020008A1
:041E9C00E501000854
:101EA00001000000100000000024F4000000000009
:101EB00000000000FC02002064030020CC0300208E
:101EC0000000000000000000000000000000000012
:101ED0000000000000000000000000000000000002
:101EE00000000000000000000000000000000000F2
:101EF00000000000000000000000000000000000E2
:101F000000000000000000000000000000000000D1
:101F100000000000000000000000000000000000C1
:101F200000000000000000000000000000000000B1
:101F300000000000000000000000000000000000A1
:101F40000000000000000000000000000000000091
:101F50000000000000000000010000000000000080
:101F60000E33CDAB34126DE6ECDE05000B00000045
:101F70000000000000000000000000000000000061
:101F80000000000000000000000000000000000051
:101F90000000000000000000000000000000000041
:101FA0000000000000000000000000000000000031
:0C22D000000000000000000030050020AD
:0400000508001C359E
:00000001FF
